{
  "contractName": "Lightsaber",
  "abi": [
    {
      "inputs": [],
      "stateMutability": "nonpayable",
      "type": "constructor"
    },
    {
      "anonymous": false,
      "inputs": [
        {
          "indexed": true,
          "internalType": "address",
          "name": "owner",
          "type": "address"
        },
        {
          "indexed": true,
          "internalType": "address",
          "name": "approved",
          "type": "address"
        },
        {
          "indexed": true,
          "internalType": "uint256",
          "name": "tokenId",
          "type": "uint256"
        }
      ],
      "name": "Approval",
      "type": "event"
    },
    {
      "anonymous": false,
      "inputs": [
        {
          "indexed": true,
          "internalType": "address",
          "name": "owner",
          "type": "address"
        },
        {
          "indexed": true,
          "internalType": "address",
          "name": "operator",
          "type": "address"
        },
        {
          "indexed": false,
          "internalType": "bool",
          "name": "approved",
          "type": "bool"
        }
      ],
      "name": "ApprovalForAll",
      "type": "event"
    },
    {
      "anonymous": false,
      "inputs": [
        {
          "indexed": true,
          "internalType": "address",
          "name": "previousOwner",
          "type": "address"
        },
        {
          "indexed": true,
          "internalType": "address",
          "name": "newOwner",
          "type": "address"
        }
      ],
      "name": "OwnershipTransferred",
      "type": "event"
    },
    {
      "anonymous": false,
      "inputs": [
        {
          "indexed": true,
          "internalType": "address",
          "name": "from",
          "type": "address"
        },
        {
          "indexed": true,
          "internalType": "address",
          "name": "to",
          "type": "address"
        },
        {
          "indexed": true,
          "internalType": "uint256",
          "name": "tokenId",
          "type": "uint256"
        }
      ],
      "name": "Transfer",
      "type": "event"
    },
    {
      "inputs": [
        {
          "internalType": "address",
          "name": "to",
          "type": "address"
        },
        {
          "internalType": "uint256",
          "name": "tokenId",
          "type": "uint256"
        }
      ],
      "name": "approve",
      "outputs": [],
      "stateMutability": "nonpayable",
      "type": "function"
    },
    {
      "inputs": [
        {
          "internalType": "address",
          "name": "owner",
          "type": "address"
        }
      ],
      "name": "balanceOf",
      "outputs": [
        {
          "internalType": "uint256",
          "name": "",
          "type": "uint256"
        }
      ],
      "stateMutability": "view",
      "type": "function"
    },
    {
      "inputs": [
        {
          "internalType": "uint256",
          "name": "tokenId",
          "type": "uint256"
        }
      ],
      "name": "getApproved",
      "outputs": [
        {
          "internalType": "address",
          "name": "",
          "type": "address"
        }
      ],
      "stateMutability": "view",
      "type": "function"
    },
    {
      "inputs": [
        {
          "internalType": "address",
          "name": "owner",
          "type": "address"
        },
        {
          "internalType": "address",
          "name": "operator",
          "type": "address"
        }
      ],
      "name": "isApprovedForAll",
      "outputs": [
        {
          "internalType": "bool",
          "name": "",
          "type": "bool"
        }
      ],
      "stateMutability": "view",
      "type": "function"
    },
    {
      "inputs": [],
      "name": "name",
      "outputs": [
        {
          "internalType": "string",
          "name": "",
          "type": "string"
        }
      ],
      "stateMutability": "view",
      "type": "function"
    },
    {
      "inputs": [],
      "name": "owner",
      "outputs": [
        {
          "internalType": "address",
          "name": "",
          "type": "address"
        }
      ],
      "stateMutability": "view",
      "type": "function"
    },
    {
      "inputs": [
        {
          "internalType": "uint256",
          "name": "tokenId",
          "type": "uint256"
        }
      ],
      "name": "ownerOf",
      "outputs": [
        {
          "internalType": "address",
          "name": "",
          "type": "address"
        }
      ],
      "stateMutability": "view",
      "type": "function"
    },
    {
      "inputs": [],
      "name": "renounceOwnership",
      "outputs": [],
      "stateMutability": "nonpayable",
      "type": "function"
    },
    {
      "inputs": [
        {
          "internalType": "address",
          "name": "from",
          "type": "address"
        },
        {
          "internalType": "address",
          "name": "to",
          "type": "address"
        },
        {
          "internalType": "uint256",
          "name": "tokenId",
          "type": "uint256"
        }
      ],
      "name": "safeTransferFrom",
      "outputs": [],
      "stateMutability": "nonpayable",
      "type": "function"
    },
    {
      "inputs": [
        {
          "internalType": "address",
          "name": "from",
          "type": "address"
        },
        {
          "internalType": "address",
          "name": "to",
          "type": "address"
        },
        {
          "internalType": "uint256",
          "name": "tokenId",
          "type": "uint256"
        },
        {
          "internalType": "bytes",
          "name": "_data",
          "type": "bytes"
        }
      ],
      "name": "safeTransferFrom",
      "outputs": [],
      "stateMutability": "nonpayable",
      "type": "function"
    },
    {
      "inputs": [
        {
          "internalType": "address",
          "name": "operator",
          "type": "address"
        },
        {
          "internalType": "bool",
          "name": "approved",
          "type": "bool"
        }
      ],
      "name": "setApprovalForAll",
      "outputs": [],
      "stateMutability": "nonpayable",
      "type": "function"
    },
    {
      "inputs": [
        {
          "internalType": "bytes4",
          "name": "interfaceId",
          "type": "bytes4"
        }
      ],
      "name": "supportsInterface",
      "outputs": [
        {
          "internalType": "bool",
          "name": "",
          "type": "bool"
        }
      ],
      "stateMutability": "view",
      "type": "function"
    },
    {
      "inputs": [],
      "name": "symbol",
      "outputs": [
        {
          "internalType": "string",
          "name": "",
          "type": "string"
        }
      ],
      "stateMutability": "view",
      "type": "function"
    },
    {
      "inputs": [
        {
          "internalType": "address",
          "name": "from",
          "type": "address"
        },
        {
          "internalType": "address",
          "name": "to",
          "type": "address"
        },
        {
          "internalType": "uint256",
          "name": "tokenId",
          "type": "uint256"
        }
      ],
      "name": "transferFrom",
      "outputs": [],
      "stateMutability": "nonpayable",
      "type": "function"
    },
    {
      "inputs": [
        {
          "internalType": "address",
          "name": "newOwner",
          "type": "address"
        }
      ],
      "name": "transferOwnership",
      "outputs": [],
      "stateMutability": "nonpayable",
      "type": "function"
    },
    {
      "inputs": [
        {
          "internalType": "address",
          "name": "to",
          "type": "address"
        },
        {
          "internalType": "string",
          "name": "uri",
          "type": "string"
        }
      ],
      "name": "safeMint",
      "outputs": [],
      "stateMutability": "nonpayable",
      "type": "function"
    },
    {
      "inputs": [
        {
          "internalType": "uint256",
          "name": "tokenId",
          "type": "uint256"
        }
      ],
      "name": "tokenURI",
      "outputs": [
        {
          "internalType": "string",
          "name": "",
          "type": "string"
        }
      ],
      "stateMutability": "view",
      "type": "function"
    },
    {
      "inputs": [
        {
          "internalType": "string",
          "name": "uri",
          "type": "string"
        }
      ],
      "name": "isTokenOwned",
      "outputs": [
        {
          "internalType": "bool",
          "name": "",
          "type": "bool"
        }
      ],
      "stateMutability": "view",
      "type": "function"
    },
    {
      "inputs": [
        {
          "internalType": "address",
          "name": "recipient",
          "type": "address"
        },
        {
          "internalType": "string",
          "name": "metadataURI",
          "type": "string"
        }
      ],
      "name": "payToMint",
      "outputs": [
        {
          "internalType": "uint256",
          "name": "",
          "type": "uint256"
        }
      ],
      "stateMutability": "payable",
      "type": "function"
    },
    {
      "inputs": [],
      "name": "count",
      "outputs": [
        {
          "internalType": "uint256",
          "name": "",
          "type": "uint256"
        }
      ],
      "stateMutability": "view",
      "type": "function"
    }
  ],
  "bytecode": "0x60806040523480156200001157600080fd5b506040518060400160405280600a81526020017f4c696768747361626572000000000000000000000000000000000000000000008152506040518060400160405280600381526020017f4c53420000000000000000000000000000000000000000000000000000000000815250816000908051906020019062000096929190620001a6565b508060019080519060200190620000af929190620001a6565b505050620000d2620000c6620000d860201b60201c565b620000e060201b60201c565b620002ba565b600033905090565b6000600760009054906101000a900473ffffffffffffffffffffffffffffffffffffffff16905081600760006101000a81548173ffffffffffffffffffffffffffffffffffffffff021916908373ffffffffffffffffffffffffffffffffffffffff1602179055508173ffffffffffffffffffffffffffffffffffffffff168173ffffffffffffffffffffffffffffffffffffffff167f8be0079c531659141344cd1fd0a4f28419497f9722a3daafe3b4186f6b6457e060405160405180910390a35050565b828054620001b49062000285565b90600052602060002090601f016020900481019282620001d8576000855562000224565b82601f10620001f357805160ff191683800117855562000224565b8280016001018555821562000224579182015b828111156200022357825182559160200191906001019062000206565b5b50905062000233919062000237565b5090565b5b808211156200025257600081600090555060010162000238565b5090565b7f4e487b7100000000000000000000000000000000000000000000000000000000600052602260045260246000fd5b600060028204905060018216806200029e57607f821691505b602082108103620002b457620002b362000256565b5b50919050565b6134d380620002ca6000396000f3fe60806040526004361061011f5760003560e01c8063715018a6116100a0578063ba7ca0ba11610064578063ba7ca0ba146103d8578063c87b56dd14610415578063d204c45e14610452578063e985e9c51461047b578063f2fde38b146104b85761011f565b8063715018a6146103195780638da5cb5b1461033057806395d89b411461035b578063a22cb46514610386578063b88d4fde146103af5761011f565b806323b872dd116100e757806323b872dd1461021d57806342842e0e14610246578063615fd9e21461026f5780636352211e1461029f57806370a08231146102dc5761011f565b806301ffc9a71461012457806306661abd1461016157806306fdde031461018c578063081812fc146101b7578063095ea7b3146101f4575b600080fd5b34801561013057600080fd5b5061014b60048036038101906101469190612001565b6104e1565b6040516101589190612049565b60405180910390f35b34801561016d57600080fd5b506101766105c3565b604051610183919061207d565b60405180910390f35b34801561019857600080fd5b506101a16105d4565b6040516101ae9190612131565b60405180910390f35b3480156101c357600080fd5b506101de60048036038101906101d9919061217f565b610666565b6040516101eb91906121ed565b60405180910390f35b34801561020057600080fd5b5061021b60048036038101906102169190612234565b6106eb565b005b34801561022957600080fd5b50610244600480360381019061023f9190612274565b610802565b005b34801561025257600080fd5b5061026d60048036038101906102689190612274565b610862565b005b610289600480360381019061028491906123fc565b610882565b604051610296919061207d565b60405180910390f35b3480156102ab57600080fd5b506102c660048036038101906102c1919061217f565b6109ad565b6040516102d391906121ed565b60405180910390f35b3480156102e857600080fd5b5061030360048036038101906102fe9190612458565b610a5e565b604051610310919061207d565b60405180910390f35b34801561032557600080fd5b5061032e610b15565b005b34801561033c57600080fd5b50610345610b9d565b60405161035291906121ed565b60405180910390f35b34801561036757600080fd5b50610370610bc7565b60405161037d9190612131565b60405180910390f35b34801561039257600080fd5b506103ad60048036038101906103a891906124b1565b610c59565b005b3480156103bb57600080fd5b506103d660048036038101906103d19190612592565b610c6f565b005b3480156103e457600080fd5b506103ff60048036038101906103fa9190612615565b610cd1565b60405161040c9190612049565b60405180910390f35b34801561042157600080fd5b5061043c6004803603810190610437919061217f565b610d0c565b6040516104499190612131565b60405180910390f35b34801561045e57600080fd5b50610479600480360381019061047491906123fc565b610d1e565b005b34801561048757600080fd5b506104a2600480360381019061049d919061265e565b610dcb565b6040516104af9190612049565b60405180910390f35b3480156104c457600080fd5b506104df60048036038101906104da9190612458565b610e5f565b005b60007f80ac58cd000000000000000000000000000000000000000000000000000000007bffffffffffffffffffffffffffffffffffffffffffffffffffffffff1916827bffffffffffffffffffffffffffffffffffffffffffffffffffffffff191614806105ac57507f5b5e139f000000000000000000000000000000000000000000000000000000007bffffffffffffffffffffffffffffffffffffffffffffffffffffffff1916827bffffffffffffffffffffffffffffffffffffffffffffffffffffffff1916145b806105bc57506105bb82610f56565b5b9050919050565b60006105cf6008610fc0565b905090565b6060600080546105e3906126cd565b80601f016020809104026020016040519081016040528092919081815260200182805461060f906126cd565b801561065c5780601f106106315761010080835404028352916020019161065c565b820191906000526020600020905b81548152906001019060200180831161063f57829003601f168201915b5050505050905090565b600061067182610fce565b6106b0576040517f08c379a00000000000000000000000000000000000000000000000000000000081526004016106a790612770565b60405180910390fd5b6004600083815260200190815260200160002060009054906101000a900473ffffffffffffffffffffffffffffffffffffffff169050919050565b60006106f6826109ad565b90508073ffffffffffffffffffffffffffffffffffffffff168373ffffffffffffffffffffffffffffffffffffffff1603610766576040517f08c379a000000000000000000000000000000000000000000000000000000000815260040161075d90612802565b60405180910390fd5b8073ffffffffffffffffffffffffffffffffffffffff1661078561103a565b73ffffffffffffffffffffffffffffffffffffffff1614806107b457506107b3816107ae61103a565b610dcb565b5b6107f3576040517f08c379a00000000000000000000000000000000000000000000000000000000081526004016107ea90612894565b60405180910390fd5b6107fd8383611042565b505050565b61081361080d61103a565b826110fb565b610852576040517f08c379a000000000000000000000000000000000000000000000000000000000815260040161084990612926565b60405180910390fd5b61085d8383836111d9565b505050565b61087d83838360405180602001604052806000815250610c6f565b505050565b600060016009836040516108969190612982565b908152602001604051809103902060009054906101000a900460ff1660ff16036108f5576040517f08c379a00000000000000000000000000000000000000000000000000000000081526004016108ec906129e5565b60405180910390fd5b66b1a2bc2ec5000034101561093f576040517f08c379a000000000000000000000000000000000000000000000000000000000815260040161093690612a51565b60405180910390fd5b600061094b6008610fc0565b9050610957600861143f565b60016009846040516109699190612982565b908152602001604051809103902060006101000a81548160ff021916908360ff1602179055506109998482611455565b6109a3818461162e565b8091505092915050565b6000806002600084815260200190815260200160002060009054906101000a900473ffffffffffffffffffffffffffffffffffffffff169050600073ffffffffffffffffffffffffffffffffffffffff168173ffffffffffffffffffffffffffffffffffffffff1603610a55576040517f08c379a0000000000000000000000000000000000000000000000000000000008152600401610a4c90612ae3565b60405180910390fd5b80915050919050565b60008073ffffffffffffffffffffffffffffffffffffffff168273ffffffffffffffffffffffffffffffffffffffff1603610ace576040517f08c379a0000000000000000000000000000000000000000000000000000000008152600401610ac590612b75565b60405180910390fd5b600360008373ffffffffffffffffffffffffffffffffffffffff1673ffffffffffffffffffffffffffffffffffffffff168152602001908152602001600020549050919050565b610b1d61103a565b73ffffffffffffffffffffffffffffffffffffffff16610b3b610b9d565b73ffffffffffffffffffffffffffffffffffffffff1614610b91576040517f08c379a0000000000000000000000000000000000000000000000000000000008152600401610b8890612be1565b60405180910390fd5b610b9b60006116a2565b565b6000600760009054906101000a900473ffffffffffffffffffffffffffffffffffffffff16905090565b606060018054610bd6906126cd565b80601f0160208091040260200160405190810160405280929190818152602001828054610c02906126cd565b8015610c4f5780601f10610c2457610100808354040283529160200191610c4f565b820191906000526020600020905b815481529060010190602001808311610c3257829003601f168201915b5050505050905090565b610c6b610c6461103a565b8383611768565b5050565b610c80610c7a61103a565b836110fb565b610cbf576040517f08c379a0000000000000000000000000000000000000000000000000000000008152600401610cb690612926565b60405180910390fd5b610ccb848484846118d4565b50505050565b60006001600983604051610ce59190612982565b908152602001604051809103902060009054906101000a900460ff1660ff16149050919050565b6060610d1782611930565b9050919050565b610d2661103a565b73ffffffffffffffffffffffffffffffffffffffff16610d44610b9d565b73ffffffffffffffffffffffffffffffffffffffff1614610d9a576040517f08c379a0000000000000000000000000000000000000000000000000000000008152600401610d9190612be1565b60405180910390fd5b6000610da66008610fc0565b9050610db2600861143f565b610dbc8382611a81565b610dc6818361162e565b505050565b6000600560008473ffffffffffffffffffffffffffffffffffffffff1673ffffffffffffffffffffffffffffffffffffffff16815260200190815260200160002060008373ffffffffffffffffffffffffffffffffffffffff1673ffffffffffffffffffffffffffffffffffffffff16815260200190815260200160002060009054906101000a900460ff16905092915050565b610e6761103a565b73ffffffffffffffffffffffffffffffffffffffff16610e85610b9d565b73ffffffffffffffffffffffffffffffffffffffff1614610edb576040517f08c379a0000000000000000000000000000000000000000000000000000000008152600401610ed290612be1565b60405180910390fd5b600073ffffffffffffffffffffffffffffffffffffffff168173ffffffffffffffffffffffffffffffffffffffff1603610f4a576040517f08c379a0000000000000000000000000000000000000000000000000000000008152600401610f4190612c73565b60405180910390fd5b610f53816116a2565b50565b60007f01ffc9a7000000000000000000000000000000000000000000000000000000007bffffffffffffffffffffffffffffffffffffffffffffffffffffffff1916827bffffffffffffffffffffffffffffffffffffffffffffffffffffffff1916149050919050565b600081600001549050919050565b60008073ffffffffffffffffffffffffffffffffffffffff166002600084815260200190815260200160002060009054906101000a900473ffffffffffffffffffffffffffffffffffffffff1673ffffffffffffffffffffffffffffffffffffffff1614159050919050565b600033905090565b816004600083815260200190815260200160002060006101000a81548173ffffffffffffffffffffffffffffffffffffffff021916908373ffffffffffffffffffffffffffffffffffffffff160217905550808273ffffffffffffffffffffffffffffffffffffffff166110b5836109ad565b73ffffffffffffffffffffffffffffffffffffffff167f8c5be1e5ebec7d5bd14f71427d1e84f3dd0314c0f7b2291e5b200ac8c7c3b92560405160405180910390a45050565b600061110682610fce565b611145576040517f08c379a000000000000000000000000000000000000000000000000000000000815260040161113c90612d05565b60405180910390fd5b6000611150836109ad565b90508073ffffffffffffffffffffffffffffffffffffffff168473ffffffffffffffffffffffffffffffffffffffff1614806111bf57508373ffffffffffffffffffffffffffffffffffffffff166111a784610666565b73ffffffffffffffffffffffffffffffffffffffff16145b806111d057506111cf8185610dcb565b5b91505092915050565b8273ffffffffffffffffffffffffffffffffffffffff166111f9826109ad565b73ffffffffffffffffffffffffffffffffffffffff161461124f576040517f08c379a000000000000000000000000000000000000000000000000000000000815260040161124690612d97565b60405180910390fd5b600073ffffffffffffffffffffffffffffffffffffffff168273ffffffffffffffffffffffffffffffffffffffff16036112be576040517f08c379a00000000000000000000000000000000000000000000000000000000081526004016112b590612e29565b60405180910390fd5b6112c9838383611a9f565b6112d4600082611042565b6001600360008573ffffffffffffffffffffffffffffffffffffffff1673ffffffffffffffffffffffffffffffffffffffff16815260200190815260200160002060008282546113249190612e78565b925050819055506001600360008473ffffffffffffffffffffffffffffffffffffffff1673ffffffffffffffffffffffffffffffffffffffff168152602001908152602001600020600082825461137b9190612eac565b92505081905550816002600083815260200190815260200160002060006101000a81548173ffffffffffffffffffffffffffffffffffffffff021916908373ffffffffffffffffffffffffffffffffffffffff160217905550808273ffffffffffffffffffffffffffffffffffffffff168473ffffffffffffffffffffffffffffffffffffffff167fddf252ad1be2c89b69c2b068fc378daa952ba7f163c4a11628f55a4df523b3ef60405160405180910390a461143a838383611aa4565b505050565b6001816000016000828254019250508190555050565b600073ffffffffffffffffffffffffffffffffffffffff168273ffffffffffffffffffffffffffffffffffffffff16036114c4576040517f08c379a00000000000000000000000000000000000000000000000000000000081526004016114bb90612f4e565b60405180910390fd5b6114cd81610fce565b1561150d576040517f08c379a000000000000000000000000000000000000000000000000000000000815260040161150490612fba565b60405180910390fd5b61151960008383611a9f565b6001600360008473ffffffffffffffffffffffffffffffffffffffff1673ffffffffffffffffffffffffffffffffffffffff16815260200190815260200160002060008282546115699190612eac565b92505081905550816002600083815260200190815260200160002060006101000a81548173ffffffffffffffffffffffffffffffffffffffff021916908373ffffffffffffffffffffffffffffffffffffffff160217905550808273ffffffffffffffffffffffffffffffffffffffff16600073ffffffffffffffffffffffffffffffffffffffff167fddf252ad1be2c89b69c2b068fc378daa952ba7f163c4a11628f55a4df523b3ef60405160405180910390a461162a60008383611aa4565b5050565b61163782610fce565b611676576040517f08c379a000000000000000000000000000000000000000000000000000000000815260040161166d9061304c565b60405180910390fd5b8060066000848152602001908152602001600020908051906020019061169d929190611ef2565b505050565b6000600760009054906101000a900473ffffffffffffffffffffffffffffffffffffffff16905081600760006101000a81548173ffffffffffffffffffffffffffffffffffffffff021916908373ffffffffffffffffffffffffffffffffffffffff1602179055508173ffffffffffffffffffffffffffffffffffffffff168173ffffffffffffffffffffffffffffffffffffffff167f8be0079c531659141344cd1fd0a4f28419497f9722a3daafe3b4186f6b6457e060405160405180910390a35050565b8173ffffffffffffffffffffffffffffffffffffffff168373ffffffffffffffffffffffffffffffffffffffff16036117d6576040517f08c379a00000000000000000000000000000000000000000000000000000000081526004016117cd906130b8565b60405180910390fd5b80600560008573ffffffffffffffffffffffffffffffffffffffff1673ffffffffffffffffffffffffffffffffffffffff16815260200190815260200160002060008473ffffffffffffffffffffffffffffffffffffffff1673ffffffffffffffffffffffffffffffffffffffff16815260200190815260200160002060006101000a81548160ff0219169083151502179055508173ffffffffffffffffffffffffffffffffffffffff168373ffffffffffffffffffffffffffffffffffffffff167f17307eab39ab6107e8899845ad3d59bd9653f200f220920489ca2b5937696c31836040516118c79190612049565b60405180910390a3505050565b6118df8484846111d9565b6118eb84848484611aa9565b61192a576040517f08c379a00000000000000000000000000000000000000000000000000000000081526004016119219061314a565b60405180910390fd5b50505050565b606061193b82610fce565b61197a576040517f08c379a0000000000000000000000000000000000000000000000000000000008152600401611971906131dc565b60405180910390fd5b600060066000848152602001908152602001600020805461199a906126cd565b80601f01602080910402602001604051908101604052809291908181526020018280546119c6906126cd565b8015611a135780601f106119e857610100808354040283529160200191611a13565b820191906000526020600020905b8154815290600101906020018083116119f657829003601f168201915b505050505090506000611a24611c30565b90506000815103611a39578192505050611a7c565b600082511115611a6e578082604051602001611a569291906131fc565b60405160208183030381529060405292505050611a7c565b611a7784611c6d565b925050505b919050565b611a9b828260405180602001604052806000815250611d14565b5050565b505050565b505050565b6000611aca8473ffffffffffffffffffffffffffffffffffffffff16611d6f565b15611c23578373ffffffffffffffffffffffffffffffffffffffff1663150b7a02611af361103a565b8786866040518563ffffffff1660e01b8152600401611b159493929190613275565b6020604051808303816000875af1925050508015611b5157506040513d601f19601f82011682018060405250810190611b4e91906132d6565b60015b611bd3573d8060008114611b81576040519150601f19603f3d011682016040523d82523d6000602084013e611b86565b606091505b506000815103611bcb576040517f08c379a0000000000000000000000000000000000000000000000000000000008152600401611bc29061314a565b60405180910390fd5b805181602001fd5b63150b7a0260e01b7bffffffffffffffffffffffffffffffffffffffffffffffffffffffff1916817bffffffffffffffffffffffffffffffffffffffffffffffffffffffff191614915050611c28565b600190505b949350505050565b60606040518060400160405280600781526020017f697066733a2f2f00000000000000000000000000000000000000000000000000815250905090565b6060611c7882610fce565b611cb7576040517f08c379a0000000000000000000000000000000000000000000000000000000008152600401611cae90613375565b60405180910390fd5b6000611cc1611c30565b90506000815111611ce15760405180602001604052806000815250611d0c565b80611ceb84611d92565b604051602001611cfc9291906131fc565b6040516020818303038152906040525b915050919050565b611d1e8383611455565b611d2b6000848484611aa9565b611d6a576040517f08c379a0000000000000000000000000000000000000000000000000000000008152600401611d619061314a565b60405180910390fd5b505050565b6000808273ffffffffffffffffffffffffffffffffffffffff163b119050919050565b606060008203611dd9576040518060400160405280600181526020017f30000000000000000000000000000000000000000000000000000000000000008152509050611eed565b600082905060005b60008214611e0b578080611df490613395565b915050600a82611e04919061340c565b9150611de1565b60008167ffffffffffffffff811115611e2757611e266122d1565b5b6040519080825280601f01601f191660200182016040528015611e595781602001600182028036833780820191505090505b5090505b60008514611ee657600182611e729190612e78565b9150600a85611e81919061343d565b6030611e8d9190612eac565b60f81b818381518110611ea357611ea261346e565b5b60200101907effffffffffffffffffffffffffffffffffffffffffffffffffffffffffffff1916908160001a905350600a85611edf919061340c565b9450611e5d565b8093505050505b919050565b828054611efe906126cd565b90600052602060002090601f016020900481019282611f205760008555611f67565b82601f10611f3957805160ff1916838001178555611f67565b82800160010185558215611f67579182015b82811115611f66578251825591602001919060010190611f4b565b5b509050611f749190611f78565b5090565b5b80821115611f91576000816000905550600101611f79565b5090565b6000604051905090565b600080fd5b600080fd5b60007fffffffff0000000000000000000000000000000000000000000000000000000082169050919050565b611fde81611fa9565b8114611fe957600080fd5b50565b600081359050611ffb81611fd5565b92915050565b60006020828403121561201757612016611f9f565b5b600061202584828501611fec565b91505092915050565b60008115159050919050565b6120438161202e565b82525050565b600060208201905061205e600083018461203a565b92915050565b6000819050919050565b61207781612064565b82525050565b6000602082019050612092600083018461206e565b92915050565b600081519050919050565b600082825260208201905092915050565b60005b838110156120d25780820151818401526020810190506120b7565b838111156120e1576000848401525b50505050565b6000601f19601f8301169050919050565b600061210382612098565b61210d81856120a3565b935061211d8185602086016120b4565b612126816120e7565b840191505092915050565b6000602082019050818103600083015261214b81846120f8565b905092915050565b61215c81612064565b811461216757600080fd5b50565b60008135905061217981612153565b92915050565b60006020828403121561219557612194611f9f565b5b60006121a38482850161216a565b91505092915050565b600073ffffffffffffffffffffffffffffffffffffffff82169050919050565b60006121d7826121ac565b9050919050565b6121e7816121cc565b82525050565b600060208201905061220260008301846121de565b92915050565b612211816121cc565b811461221c57600080fd5b50565b60008135905061222e81612208565b92915050565b6000806040838503121561224b5761224a611f9f565b5b60006122598582860161221f565b925050602061226a8582860161216a565b9150509250929050565b60008060006060848603121561228d5761228c611f9f565b5b600061229b8682870161221f565b93505060206122ac8682870161221f565b92505060406122bd8682870161216a565b9150509250925092565b600080fd5b600080fd5b7f4e487b7100000000000000000000000000000000000000000000000000000000600052604160045260246000fd5b612309826120e7565b810181811067ffffffffffffffff82111715612328576123276122d1565b5b80604052505050565b600061233b611f95565b90506123478282612300565b919050565b600067ffffffffffffffff821115612367576123666122d1565b5b612370826120e7565b9050602081019050919050565b82818337600083830152505050565b600061239f61239a8461234c565b612331565b9050828152602081018484840111156123bb576123ba6122cc565b5b6123c684828561237d565b509392505050565b600082601f8301126123e3576123e26122c7565b5b81356123f384826020860161238c565b91505092915050565b6000806040838503121561241357612412611f9f565b5b60006124218582860161221f565b925050602083013567ffffffffffffffff81111561244257612441611fa4565b5b61244e858286016123ce565b9150509250929050565b60006020828403121561246e5761246d611f9f565b5b600061247c8482850161221f565b91505092915050565b61248e8161202e565b811461249957600080fd5b50565b6000813590506124ab81612485565b92915050565b600080604083850312156124c8576124c7611f9f565b5b60006124d68582860161221f565b92505060206124e78582860161249c565b9150509250929050565b600067ffffffffffffffff82111561250c5761250b6122d1565b5b612515826120e7565b9050602081019050919050565b6000612535612530846124f1565b612331565b905082815260208101848484011115612551576125506122cc565b5b61255c84828561237d565b509392505050565b600082601f830112612579576125786122c7565b5b8135612589848260208601612522565b91505092915050565b600080600080608085870312156125ac576125ab611f9f565b5b60006125ba8782880161221f565b94505060206125cb8782880161221f565b93505060406125dc8782880161216a565b925050606085013567ffffffffffffffff8111156125fd576125fc611fa4565b5b61260987828801612564565b91505092959194509250565b60006020828403121561262b5761262a611f9f565b5b600082013567ffffffffffffffff81111561264957612648611fa4565b5b612655848285016123ce565b91505092915050565b6000806040838503121561267557612674611f9f565b5b60006126838582860161221f565b92505060206126948582860161221f565b9150509250929050565b7f4e487b7100000000000000000000000000000000000000000000000000000000600052602260045260246000fd5b600060028204905060018216806126e557607f821691505b6020821081036126f8576126f761269e565b5b50919050565b7f4552433732313a20617070726f76656420717565727920666f72206e6f6e657860008201527f697374656e7420746f6b656e0000000000000000000000000000000000000000602082015250565b600061275a602c836120a3565b9150612765826126fe565b604082019050919050565b600060208201905081810360008301526127898161274d565b9050919050565b7f4552433732313a20617070726f76616c20746f2063757272656e74206f776e6560008201527f7200000000000000000000000000000000000000000000000000000000000000602082015250565b60006127ec6021836120a3565b91506127f782612790565b604082019050919050565b6000602082019050818103600083015261281b816127df565b9050919050565b7f4552433732313a20617070726f76652063616c6c6572206973206e6f74206f7760008201527f6e6572206e6f7220617070726f76656420666f7220616c6c0000000000000000602082015250565b600061287e6038836120a3565b915061288982612822565b604082019050919050565b600060208201905081810360008301526128ad81612871565b9050919050565b7f4552433732313a207472616e736665722063616c6c6572206973206e6f74206f60008201527f776e6572206e6f7220617070726f766564000000000000000000000000000000602082015250565b60006129106031836120a3565b915061291b826128b4565b604082019050919050565b6000602082019050818103600083015261293f81612903565b9050919050565b600081905092915050565b600061295c82612098565b6129668185612946565b93506129768185602086016120b4565b80840191505092915050565b600061298e8284612951565b915081905092915050565b7f4e465420616c7265616479206d696e7465642100000000000000000000000000600082015250565b60006129cf6013836120a3565b91506129da82612999565b602082019050919050565b600060208201905081810360008301526129fe816129c2565b9050919050565b7f4e6f7420656e6f75676820657468657221000000000000000000000000000000600082015250565b6000612a3b6011836120a3565b9150612a4682612a05565b602082019050919050565b60006020820190508181036000830152612a6a81612a2e565b9050919050565b7f4552433732313a206f776e657220717565727920666f72206e6f6e657869737460008201527f656e7420746f6b656e0000000000000000000000000000000000000000000000602082015250565b6000612acd6029836120a3565b9150612ad882612a71565b604082019050919050565b60006020820190508181036000830152612afc81612ac0565b9050919050565b7f4552433732313a2062616c616e636520717565727920666f7220746865207a6560008201527f726f206164647265737300000000000000000000000000000000000000000000602082015250565b6000612b5f602a836120a3565b9150612b6a82612b03565b604082019050919050565b60006020820190508181036000830152612b8e81612b52565b9050919050565b7f4f776e61626c653a2063616c6c6572206973206e6f7420746865206f776e6572600082015250565b6000612bcb6020836120a3565b9150612bd682612b95565b602082019050919050565b60006020820190508181036000830152612bfa81612bbe565b9050919050565b7f4f776e61626c653a206e6577206f776e657220697320746865207a65726f206160008201527f6464726573730000000000000000000000000000000000000000000000000000602082015250565b6000612c5d6026836120a3565b9150612c6882612c01565b604082019050919050565b60006020820190508181036000830152612c8c81612c50565b9050919050565b7f4552433732313a206f70657261746f7220717565727920666f72206e6f6e657860008201527f697374656e7420746f6b656e0000000000000000000000000000000000000000602082015250565b6000612cef602c836120a3565b9150612cfa82612c93565b604082019050919050565b60006020820190508181036000830152612d1e81612ce2565b9050919050565b7f4552433732313a207472616e736665722066726f6d20696e636f72726563742060008201527f6f776e6572000000000000000000000000000000000000000000000000000000602082015250565b6000612d816025836120a3565b9150612d8c82612d25565b604082019050919050565b60006020820190508181036000830152612db081612d74565b9050919050565b7f4552433732313a207472616e7366657220746f20746865207a65726f2061646460008201527f7265737300000000000000000000000000000000000000000000000000000000602082015250565b6000612e136024836120a3565b9150612e1e82612db7565b604082019050919050565b60006020820190508181036000830152612e4281612e06565b9050919050565b7f4e487b7100000000000000000000000000000000000000000000000000000000600052601160045260246000fd5b6000612e8382612064565b9150612e8e83612064565b925082821015612ea157612ea0612e49565b5b828203905092915050565b6000612eb782612064565b9150612ec283612064565b9250827fffffffffffffffffffffffffffffffffffffffffffffffffffffffffffffffff03821115612ef757612ef6612e49565b5b828201905092915050565b7f4552433732313a206d696e7420746f20746865207a65726f2061646472657373600082015250565b6000612f386020836120a3565b9150612f4382612f02565b602082019050919050565b60006020820190508181036000830152612f6781612f2b565b9050919050565b7f4552433732313a20746f6b656e20616c7265616479206d696e74656400000000600082015250565b6000612fa4601c836120a3565b9150612faf82612f6e565b602082019050919050565b60006020820190508181036000830152612fd381612f97565b9050919050565b7f45524337323155524953746f726167653a2055524920736574206f66206e6f6e60008201527f6578697374656e7420746f6b656e000000000000000000000000000000000000602082015250565b6000613036602e836120a3565b915061304182612fda565b604082019050919050565b6000602082019050818103600083015261306581613029565b9050919050565b7f4552433732313a20617070726f766520746f2063616c6c657200000000000000600082015250565b60006130a26019836120a3565b91506130ad8261306c565b602082019050919050565b600060208201905081810360008301526130d181613095565b9050919050565b7f4552433732313a207472616e7366657220746f206e6f6e20455243373231526560008201527f63656976657220696d706c656d656e7465720000000000000000000000000000602082015250565b60006131346032836120a3565b915061313f826130d8565b604082019050919050565b6000602082019050818103600083015261316381613127565b9050919050565b7f45524337323155524953746f726167653a2055524920717565727920666f722060008201527f6e6f6e6578697374656e7420746f6b656e000000000000000000000000000000602082015250565b60006131c66031836120a3565b91506131d18261316a565b604082019050919050565b600060208201905081810360008301526131f5816131b9565b9050919050565b60006132088285612951565b91506132148284612951565b91508190509392505050565b600081519050919050565b600082825260208201905092915050565b600061324782613220565b613251818561322b565b93506132618185602086016120b4565b61326a816120e7565b840191505092915050565b600060808201905061328a60008301876121de565b61329760208301866121de565b6132a4604083018561206e565b81810360608301526132b6818461323c565b905095945050505050565b6000815190506132d081611fd5565b92915050565b6000602082840312156132ec576132eb611f9f565b5b60006132fa848285016132c1565b91505092915050565b7f4552433732314d657461646174613a2055524920717565727920666f72206e6f60008201527f6e6578697374656e7420746f6b656e0000000000000000000000000000000000602082015250565b600061335f602f836120a3565b915061336a82613303565b604082019050919050565b6000602082019050818103600083015261338e81613352565b9050919050565b60006133a082612064565b91507fffffffffffffffffffffffffffffffffffffffffffffffffffffffffffffffff82036133d2576133d1612e49565b5b600182019050919050565b7f4e487b7100000000000000000000000000000000000000000000000000000000600052601260045260246000fd5b600061341782612064565b915061342283612064565b925082613432576134316133dd565b5b828204905092915050565b600061344882612064565b915061345383612064565b925082613463576134626133dd565b5b828206905092915050565b7f4e487b7100000000000000000000000000000000000000000000000000000000600052603260045260246000fdfea2646970667358221220948c53c742a51b9c0a5e9a08adcb4b29aa1b4673c716f77c19a13d446f14e45264736f6c634300080d0033",
  "immutableReferences": {},
  "source": "// SPDX-License-Identifier: MIT\npragma solidity ^0.8.4;\n\nimport \"@openzeppelin/contracts/token/ERC721/ERC721.sol\";\nimport \"@openzeppelin/contracts/token/ERC721/extensions/ERC721URIStorage.sol\";\nimport \"@openzeppelin/contracts/access/Ownable.sol\";\nimport \"@openzeppelin/contracts/utils/Counters.sol\";\n\ncontract Lightsaber is ERC721, ERC721URIStorage, Ownable {\n    using Counters for Counters.Counter;\n\n    Counters.Counter private _tokenIdCounter;\n\n    mapping(string => uint8) existingURIs;\n\n    constructor() ERC721(\"Lightsaber\", \"LSB\") {}\n\n    function _baseURI() internal pure override returns (string memory) {\n        return \"ipfs://\";\n    }\n\n    function safeMint(address to, string memory uri) public onlyOwner {\n        uint256 tokenId = _tokenIdCounter.current();\n        _tokenIdCounter.increment();\n        _safeMint(to, tokenId);\n        _setTokenURI(tokenId, uri);\n    }\n\n    // The following functions are overrides required by Solidity.\n\n    function _burn(uint256 tokenId) internal override(ERC721, ERC721URIStorage) {\n        super._burn(tokenId);\n    }\n\n    function tokenURI(uint256 tokenId)\n        public\n        view\n        override(ERC721, ERC721URIStorage)\n        returns (string memory)\n    {\n        return super.tokenURI(tokenId);\n    }\n\n    function isTokenOwned(string memory uri) public view returns (bool) {\n        return existingURIs[uri] == 1;\n    }\n\n    function payToMint (address recipient, string memory metadataURI) public payable returns (uint256)  {\n        require(existingURIs[metadataURI] != 1, \"NFT already minted!\");\n        require(msg.value >= 0.05 ether, \"Not enough ether!\");\n\n        uint256 newItemId = _tokenIdCounter.current();\n        _tokenIdCounter.increment();\n\n        existingURIs[metadataURI] = 1;\n\n        _mint(recipient, newItemId);\n        _setTokenURI(newItemId, metadataURI);\n\n        return newItemId;\n    }\n\n    function count() public view returns (uint256) {\n        return _tokenIdCounter.current(); \n    }\n\n}",
  "sourcePath": "/Users/chongxian/Projects/personal/explore-web3/contracts/Lightsaber.sol",
  "compiler": {
    "name": "solc",
    "version": "0.8.13+commit.abaa5c0e.Emscripten.clang"
  },
  "schemaVersion": "3.4.7",
  "updatedAt": "2022-04-23T15:17:56.820Z",
  "devdoc": {
    "kind": "dev",
    "methods": {
      "approve(address,uint256)": {
        "details": "See {IERC721-approve}."
      },
      "balanceOf(address)": {
        "details": "See {IERC721-balanceOf}."
      },
      "getApproved(uint256)": {
        "details": "See {IERC721-getApproved}."
      },
      "isApprovedForAll(address,address)": {
        "details": "See {IERC721-isApprovedForAll}."
      },
      "name()": {
        "details": "See {IERC721Metadata-name}."
      },
      "owner()": {
        "details": "Returns the address of the current owner."
      },
      "ownerOf(uint256)": {
        "details": "See {IERC721-ownerOf}."
      },
      "renounceOwnership()": {
        "details": "Leaves the contract without owner. It will not be possible to call `onlyOwner` functions anymore. Can only be called by the current owner. NOTE: Renouncing ownership will leave the contract without an owner, thereby removing any functionality that is only available to the owner."
      },
      "safeTransferFrom(address,address,uint256)": {
        "details": "See {IERC721-safeTransferFrom}."
      },
      "safeTransferFrom(address,address,uint256,bytes)": {
        "details": "See {IERC721-safeTransferFrom}."
      },
      "setApprovalForAll(address,bool)": {
        "details": "See {IERC721-setApprovalForAll}."
      },
      "supportsInterface(bytes4)": {
        "details": "See {IERC165-supportsInterface}."
      },
      "symbol()": {
        "details": "See {IERC721Metadata-symbol}."
      },
      "transferFrom(address,address,uint256)": {
        "details": "See {IERC721-transferFrom}."
      },
      "transferOwnership(address)": {
        "details": "Transfers ownership of the contract to a new account (`newOwner`). Can only be called by the current owner."
      }
    },
    "version": 1
  },
  "userdoc": {
    "kind": "user",
    "methods": {},
    "version": 1
  }
}